S01700004763634170706C69636174696F6E312E737265635B
S11300000C9489000C94A6000C94A6000C94A600F1
S11300100C94A6000C94A6000C94A6000C94A600C4
S11300200C94A6000C94A6000C94A6000C94C9038E
S11300300C94A6000C94A6000C94A6000C94A600A4
S11300400C94A6000C94A6000C94A6000C94A60094
S11300500C94A6000C94A6000C94A6000C94A60084
S11300600C94A6000C94A60052046B049404E004BF
S1130070F20420053B056C0508000000BE922449EB
S1130080123EABAAAA2ABECDCCCC4C3E00000080C6
S1130090BEABAAAAAA3E00000000BF000000803F39
S11300A00000000000084178D3BB4387D1133D19F9
S11300B00E3CC3BD4282AD2B3E68EC8276BED98F26
S11300C0E1A93E4C80EFFFBE01C4FF7F3F0000006A
S11300D00000001F000000001F00001F101010107F
S11300E01F00001F181818181F00001F1C1C1C1CC0
S11300F01F00001F1E1E1E1E1F00001F1F1F1F1F8C
S11301001F0003070F1F0F070300181C1E1F1E1CD0
S1130110180011241FBECFEFD8E0DEBFCDBF12E020
S1130120A0E0B1E0E2E4F3E102C005900D92A43254
S1130130B107D9F722E0A4E2B2E001C01D92AF33C7
S1130140B207E1F70E949F030C949F090C940000EE
S1130150FC010FB6F89460913B0270913C028091CF
S11301603D0290913E020FBE309721F0608371836F
S11301708283938308950E940E09AC019C01AFEA27
S1130180B7E40E949F08281B390B36952795820FE8
S1130190931F929582958F7089279F70892769E1B3
S11301A0689F9001699F300D1124CA01821B930B33
S11301B0FC01FF27EE0FFF1FEC5FFE4F2081318112
S11301C030932602209325028093240208950E94EE
S11301D00E09AC019C01AFEAB7E40E949F08281BFA
S11301E0390B36952795820F931F929582958F70C0
S11301F089279F70892769E1689F9001699F300D65
S11302001124CA01821B930B282F309124028317D7
S1130210F1F2FC01FF27EE0FFF1FEC5FFE4F808120
S113022091819093260280932502209324020895BD
S1130230809125029091260208956530C0F42091A2
S11302402502309126022115310599F09FEB980F74
S11302509A3120F09FE9980F9A3168F4F901E60F7A
S1130260F11D91E02081281390E0892F089580E00A
S1130270089580E0089580E0089565B1982F907402
S1130280492F50E055954795559547955595479570
S113029055954795982F9078292F30E0022E232FDB
S11302A0000C221F330B000C221F331F962F997F43
S11302B0492B242B25B968B1982F9071492F50E010
S11302C0559547955595479555954795982F90720F
S11302D0292F30E035952795359527953595279520
S11302E0962F997F492B242B28B99BB192609BB9F7
S11302F09BB191609BB925ED2A95F1F700009BB164
S11303009E7F9BB99BB19D7F9BB995ED9A95F1F723
S1130310000065B120E1829FC0011124AC0140744A
S11303205527559547955595479555954795559511
S113033047959C0120783327022E232F000C221F7F
S1130340330B000C221F331F362F397F432B242BF2
S113035025B948B19C0120713327359527953595EA
S11303602795359527958072992795958795959525
S1130370879595958795942F997F292B822B88B9FA
S11303808BB182608BB98BB181608BB985ED8A9515
S1130390F1F700008BB18E7F8BB98BB18D7F8BB958
S11303A095ED9A95F1F70000089565B1982F907432
S11303B0492F50E05595479555954795559547953F
S11303C055954795982F9078292F30E0022E232FAA
S11303D0000C221F330B000C221F331F962F997F12
S11303E0492B242B25B968B1982F9071492F50E0DF
S11303F0559547955595479555954795982F9072DE
S1130400292F30E0359527953595279535952795EE
S1130410962F997F492B242B28B99BB191609BB9C6
S1130420EFE9FFE03197F1F700C000009BB19E7F38
S11304309BB9EFE9FFE03197F1F700C0000065B127
S1130440F0E18F9FC0011124AC01407455275595EC
S113045047955595479555954795559547959C01CD
S113046020783327022E232F000C221F330B000C7D
S1130470221F331F362F397F432B242B25B948B134
S11304809C0120713327359527953595279535950A
S11304902795807299279595879595958795959534
S11304A08795942F997F292B822B88B98BB18160F2
S11304B08BB98FE99FE00197F1F700C000008BB181
S11304C08E7F8BB9EFE9FFE03197F1F700C00000B0
S11304D0089581E00E94D50108950F931F93CF934F
S11304E0DF93009769F0D62F8C01C0E007C0F801B4
S11304F0EC0FF11D80810E943D01CF5FCD17B8F351
S1130500DF91CF911F910F910895623031F06330E4
S113051031F0613029F4805C03C08C5E01C08C5AD8
S113052080680E94D5010895EF92FF920F931F9364
S1130530CF93DF937C01862F90E0880F991F880F5B
S1130540991F880F991F8064C0E0D0E00DC0F701A7
S1130550EC0FFD1F149101E0080F0E94D501812FBB
S11305600E943D012196802FC830D10580F3DF9190
S1130570CF911F910F91FF90EF900895CF93DF9348
S11305808FE59AEE0197F1F700C0000085B1897FED
S113059085B988B1897F88B91BB884B1866084B96C
S11305A087B1866087B98AB183608AB985B1897F4A
S11305B085B988B1866088B98BB181608BB98FE9C0
S11305C09FE00197F1F700C000008BB18E7F8BB9DB
S11305D08FE99FE00197F1F700C0000085B1897FA2
S11305E085B988B1866088B98BB181608BB98FE990
S11305F09FE00197F1F700C000008BB18E7F8BB9AB
S11306008FE99FE00197F1F700C0000085B1897F71
S113061085B988B1897F846088B98BB181608BB9D1
S11306208FE99FE00197F1F700C000008BB18E7F46
S11306308BB98FE99FE00197F1F700C0000088E2D1
S11306400E94D5018CE00E94D50160E0C0E00AC0A0
S1130650D1E0D60F8C2F90E08E529F4F0E949402CF
S1130660C85F6D2FC034A0F3DF91CF9108958FE060
S11306700E94D50108958CE00E94D5010895EF925F
S1130680FF920F931F93CF93DF9300D000D01F925C
S1130690CDB7DEB77B01FE01319625E0DF011D9267
S11306A02A95E9F724E030E00FC06AE070E00E9488
S11306B08508E1E0F0E0EC0FFD1FE20FF31F8083FB
S11306C0862F972F21503109009779F7BFEFEB164A
S11306D0FB0681F403C00F5F1F4F02C000E010E06F
S11306E0E1E0F0E0EC0FFD1FE00FF11F2081222379
S11306F091F304C005E010E00E191F09992384F456
S11307008DE20E943D010CC0E1E0F0E0EC0FFD1F22
S1130710E00FF11F8081805D0E943D010F5F1F4F3C
S1130720053011058CF30F900F900F900F900F90E0
S1130730DF91CF911F910F91FF90EF90089580E08A
S113074090E00E94A800CB010E9413090E94BE02FF
S11307500E9441060E9484050E94BB000E9421065B
S11307608091280290912902892B31F0109229025C
S1130770109228020E94270680912A0290912B024F
S1130780892B71F30E94440410922B0210922A02C6
S1130790E7CF1F920F920FB60F9211248F939F935E
S11307A081E090E090932B0280932A0280912702AB
S11307B08F5F809327028A3041F41092270281E0F0
S11307C090E090932902809328029F918F910F903B
S11307D00FBE0F901F9018951092330210923202A0
S11307E0109231021092300210922F0283E0ECE258
S11307F0F2E0DF011D928A95E9F745E050E06FE5EC
S113080070E086E391E00E943C0910923B01089558
S1130810CF93C82F0E943B0361E080E00E948502D1
S1130820C05D69E083ED91E00E946D028C2F0E940F
S11308303D012FEF83ED90E3215080409040E1F79C
S113084000C0000061E080E00E94850260E18DED5F
S113085091E00E946D02CF910895CF93DF93C091F0
S11308608400D091850086E392E00E94F4058823F9
S1130870B1F3809136028A3291F7CE0199270E9412
S11308801309DF91CF910895CF93E09134028E2F15
S113089090E08830910508F035C1FC01EC5CFF4F15
S11308A00C9499080E94690260E080E00E9485022D
S11308B06AE08EEE91E00E946D020E942D040E9477
S11308C069020E94E7000E94EC0381E080933402F5
S11308D00E94690217C161E080E00E9485020E94C3
S11308E0180165E00E946D022FEF87EA91E621501E
S11308F080409040E1F700C000000E94690260E07F
S113090080E00E94850265E086E391E00E946D022A
S11309100E94210661E080E00E9485020E94370364
S113092082E080933402EEC086E392E00E94F405F4
S1130930882309F4E7C08091360290ED980F9A302D
S113094000F590913302933008F0DCC0E92FF0E019
S1130950E45DFD4F80839F5F9093330261E080E00C
S11309600E948502C0E008C0EC2FF0E0E45DFD4F7A
S113097080810E943D01CF5F80913302C817A0F3AC
S1130980C1C0833209F0BEC08CE292E00E941E090D
S11309908093320210923302C3E0ECE2F2E0DF0112
S11309A02C2F1D922A95E9F761E080E00E948502D0
S11309B060E18DED91E00E946D02C0933402A2C00B
S11309C00E943B0360913102809132020E941D011A
S11309D0882321F084E08093340294C085E08093DE
S11309E0340290C080913102E82FF0E0EA5CFE4FBF
S11309F09091320290838F5F809331028091300214
S1130A008F5F8093300260E080E00E94850265E0A1
S1130A1086E391E00E946D0280913002853021F4DA
S1130A2086E08093340209C061E080E00E94850280
S1130A300E94370382E0809334021092320262C033
S1130A4080912F028F5F80932F020E94080480916F
S1130A502F02833021F487E08093340209C061E0DF
S1130A6080E00E9485020E94370382E08093340272
S1130A701092320247C00E943B030E94690260E068
S1130A8080E00E94850268E089EF91E00E946D0297
S1130A9061E080E00E94850268E082E092E00E94CA
S1130AA06D020E943C068093370290933802682FAF
S1130AB070E0892F90E00E943F0383E70E943D018C
S1130AC08FEF93E2A4EF81509040A040E1F700C083
S1130AD000001092340216C00E94690260E080E0B7
S1130AE00E94850267E08BE092E00E946D02BFEFF6
S1130AF023E284EFB15020408040E1F700C00000C1
S1130B0010923402CF9108958AB1837C8AB984B15A
S1130B10896184B98AB180688AB98BB18C6B8BB9CD
S1130B2085B1896185B90895E0E056C025B1296190
S1130B3025B92BB120682BB9E13051F028F0E2300F
S1130B4059F0E33069F00FC025B12F7E25B90BC0F1
S1130B5025B1277F25B907C025B12E7F25B903C04C
S1130B602BB12F772BB94B990CC0F0E0EE0FFF1F80
S1130B70EE0FFF1FED5EFD4F2081FC01208381E01D
S1130B8008954D990CC0F0E0EE0FFF1FEE0FFF1F0C
S1130B90ED5EFD4F2181FC01208381E008954C9995
S1130BA00CC0F0E0EE0FFF1FEE0FFF1FED5EFD4FD8
S1130BB02281FC01208381E008954A990CC0F0E071
S1130BC0EE0FFF1FEE0FFF1FED5EFD4F2381FC01B3
S1130BD0208381E00895EF5FE43008F4A7CF2FEF7E
S1130BE0FC01208380E008950F931F93CF93DF933C
S1130BF01F92CDB7DEB78C01CE0101960E949405F9
S1130C0089818F3F31F48093350280933C0180E0E9
S1130C1012C09091350289130BC090913C01891741
S1130C2039F0F8018083898180933C0181E003C01D
S1130C308093350280E00F90DF91CF911F910F9147
S1130C400895E9E3F2E0118281E080830895CF936F
S1130C50DF93C9E3D2E069816F5F698370E080E06C
S1130C6090E00E9490060E94F6060E945A066F5F6A
S1130C706883DF91CF9108958091390290913A026F
S1130C80089510928000E1E8F0E01082109285004F
S1130C901092840080818B60808388EA91E690932F
S1130CA0890080938800EFE6F0E080818260808391
S1130CB0789408950E9461066894B1110C94F0062A
S1130CC008950E94D50688F09F5798F0B92F992768
S1130CD0B751B0F0E1F0660F771F881F991F1AF023
S1130CE0BA95C9F714C0B13091F00E94EF06B1E093
S1130CF008950C94EF06672F782F8827B85F39F092
S1130D00B93FCCF3869577956795B395D9F73EF4BB
S1130D1090958095709561957F4F8F4F9F4F089563
S1130D20E89409C097FB3EF4909580957095619581
S1130D307F4F8F4F9F4F9923A9F0F92F96E9BB2737
S1130D409395F695879577956795B795F111F8CFB3
S1130D50FAF4BB0F11F460FF1BC06F5F7F4F8F4F1E
S1130D609F4F16C0882311F096E911C0772321F014
S1130D709EE8872F762F05C0662371F096E8862FAC
S1130D8070E060E02AF09A95660F771F881FDAF703
S1130D90880F9695879597F9089557FD9058440FB5
S1130DA0551F59F05F3F71F04795880F97FB991FC6
S1130DB061F09F3F79F08795089512161306140683
S1130DC0551FF2CF4695F1DF08C016161706180610
S1130DD0991FF1CF86957105610508940895E894EB
S1130DE0BB2766277727CB0197F908950E9406074A
S1130DF029ED3BE54EED5EE30C944E0716F00C94A2
S1130E002E080C943C0868940C9428080E94D5067B
S1130E10A8F39923C1F3AEF3DF93CF931F930F93FA
S1130E20FF92C92FDD2788232AF02197660F771FA9
S1130E30881FDAF720E030E040E85FEB9FE3883971
S1130E4020F0803E38F021968F770E94BC07E8E7B7
S1130E50F0E004C00E94BC07E5EAF0E00E943F080D
S1130E608B01BE01EC01FB2E6F5771097595771F3D
S1130E70880B990B0E94920628E132E741E35FE375
S1130E800E946107AF2D9801AE01FF900F911F9151
S1130E90CF91DF910E94D3070C9474080E946107DC
S1130EA00C9474080E94660838F00E946D0820F0C3
S1130EB0952311F00C9428080C943C0811240C94EC
S1130EC0F0060E94CD0670F3959FC1F3950F50E094
S1130ED0551F629FF001729FBB27F00DB11D639FE8
S1130EE0AA27F00DB11DAA1F649F6627B00DA11D8E
S1130EF0661F829F2227B00DA11D621F739FB00D34
S1130F00A11D621F839FA00D611D221F749F3327A3
S1130F10A00D611D231F849F600D211D822F762F3C
S1130F206A2F11249F5750409AF0F1F088234AF019
S1130F30EE0FFF1FBB1F661F771F881F9150504085
S1130F40A9F79E3F510580F00C9428080C94F006F4
S1130F505F3FE4F3983ED4F3869577956795B7950C
S1130F60F795E7959F5FC1F7FE2B880F911D969526
S1130F70879597F908955058BB27AA270E94D3074D
S1130F800C9474080E94660838F00E946D0820F0E2
S1130F9039F49F3F19F426F40C943C080EF4E095C0
S1130FA0E7FB0C942808E92F0E94CD0658F3BA17E2
S1130FB0620773078407950720F079F4A6F50C946B
S1130FC0EF060EF4E0950B2EBA2FA02D0B01B901FC
S1130FD090010C01CA01A0011124FF27591B99F0AB
S1130FE0593F50F4503E68F11A16F040A22F232FB7
S1130FF0342F4427585FF3CF469537952795A79507
S1131000F0405395C9F77EF41F16BA0B620B730BAD
S1131010840BBAF09150A1F0FF0FBB1F661F771F1E
S1131020881FC2F70EC0BA0F621F731F841F48F4D3
S1131030879577956795B795F7959E3F08F0B0CF5C
S11310409395880F08F09927EE0F97958795089543
S113105097F99F6780E870E060E008959F3F31F062
S1131060915020F4879577956795B795880F911DD2
S11310709695879597F908959FEF80EC0895DF93EF
S1131080CF931F930F93FF92EF92DF927B018C011A
S1131090689406C0DA2EEF010E946107FE01E8940D
S11310A0A5912591359145915591A6F3EF010E94A3
S11310B0D307FE019701A801DA9469F7DF90EF9056
S11310C0FF900F911F91CF91DF91089500240A940E
S11310D01616170618060906089500240A9412160F
S11310E01306140605060895092E0394000C11F442
S11310F0882352F0BB0F40F4BF2B11F460FF04C0EF
S11311006F5F7F4F8F4F9F4F089597FB072E16F405
S1131110009407D077FD09D00E94AE0807FC05D0E3
S11311203EF4909581959F4F0895709561957F4FFA
S11311300895EE0FFF1F0590F491E02D0994A29FEE
S1131140B001B39FC001A39F700D811D1124911D97
S1131150B29F700D811D1124911D0895AA1BBB1B04
S113116051E107C0AA1FBB1FA617B70710F0A61BA3
S1131170B70B881F991F5A95A9F780959095BC01C4
S1131180CD0108958F929F92AF92BF92CF92DF923A
S1131190EF92FF92CF93DF93EC01688179818A818A
S11311A09B81611571058105910521F464E279ED56
S11311B08BE597E02DE133EF41E050E00E944B09CD
S11311C049015A019B01AC01A7EAB1E40E946A09F2
S11311D06B017C01ACEEB4EFA50194010E94780987
S11311E0DC01CB018C0D9D1DAE1DBF1DB7FF03C0DF
S11311F00197A109B04888839983AA83BB839F7709
S1131200DF91CF91FF90EF90DF90CF90BF90AF90A0
S11312109F908F9008950E94C208089580E091E005
S11312200E94C2080895A0E0B0E08093000190936A
S11312300101A0930201B09303010895FC018827E2
S11312409927E89421912032E9F3293010F02E30C7
S1131250C8F32B3241F02D3239F4689404C00E9453
S11312604309820F911D219120532A30C0F31EF4AB
S1131270909581959F4F0895DC0101C06D93415075
S11312805040E0F708957AE0979F902D879F802D36
S1131290910D11240895052E97FB1EF400940E94CD
S11312A0620957FD07D00E947D0907FC03D04EF464
S11312B00C94620950954095309521953F4F4F4FBE
S11312C05F4F089590958095709561957F4F8F4FEE
S11312D09F4F08950E949F08A59F900DB49F900D65
S11312E0A49F800D911D11240895B7FF0C946A09E1
S11312F00E946A09821B930B0895A1E21A2EAA1B6D
S1131300BB1BFD010DC0AA1FBB1FEE1FFF1FA217B1
S1131310B307E407F50720F0A21BB30BE40BF50BAE
S1131320661F771F881F991F1A9469F76095709537
S1131330809590959B01AC01BD01CF010895F8946F
S1051340FFCFD9
S1131342010000003D01430149014F0155015B01C8
S1131352610167016D01730179017F0185018B01CF
S1131362910197019D01A301A901AF01B501BB013F
S1131372C101C701CD015F5F5F5F5F00FF41726220
S11313826F6C00426F746F6E004344794D430043A7
S11313926C61764500466163696C004761666173FE
S11313A200486F6A6173004C6942726F004C616E4F
S11313B27A61004E6965766500506552726F00501D
S11313C265634553005069416E6F005072594B6515
S11313D20052554544610053455249450053616CDE
S11313E255640053616C75640053696C6C610054FC
S11313F265636C610056616C6F7200566572646558
S113140200596E48527A0068415264440073696C10
S11314126C61004572726F7265733A20002020205D
S11314222020202020202020202020202000507254
S11314326573696F6E65202A00566963746F7269F9
S113144261005469656D706F3A2000446572726F71
S113145274610031323341343536423738394330DE
S10714622A232A000B
S9030000FC
